{
  "contractName": "Auth",
  "abi": [
    {
      "inputs": [],
      "stateMutability": "nonpayable",
      "type": "constructor"
    },
    {
      "inputs": [
        {
          "internalType": "address",
          "name": "user",
          "type": "address"
        }
      ],
      "name": "isAdministrator",
      "outputs": [
        {
          "internalType": "bool",
          "name": "",
          "type": "bool"
        }
      ],
      "stateMutability": "view",
      "type": "function",
      "constant": true
    }
  ],
  "bytecode": "0x608060405234801561001057600080fd5b50336000806101000a81548173ffffffffffffffffffffffffffffffffffffffff021916908373ffffffffffffffffffffffffffffffffffffffff160217905550610115806100606000396000f3fe6080604052348015600f57600080fd5b506004361060285760003560e01c80630a2eb30114602d575b600080fd5b606c60048036036020811015604157600080fd5b81019080803573ffffffffffffffffffffffffffffffffffffffff1690602001909291905050506086565b604051808215151515815260200191505060405180910390f35b60008060009054906101000a900473ffffffffffffffffffffffffffffffffffffffff1673ffffffffffffffffffffffffffffffffffffffff168273ffffffffffffffffffffffffffffffffffffffff1614905091905056fea2646970667358221220ef580ae2804980a44f5f5a8b8b6a813b4feab88b82bc5eb4c53733d0a6ef818064736f6c63430006080033",
  "immutableReferences": {},
  "source": "// contracts/access-control/Auth.sol\n// SPDX-License-Identifier: MIT\npragma solidity ^0.6.8;\n\ncontract Auth {\n    address private administrator;\n\n    constructor() public {\n        // Make the deployer of the contract the administrator\n        administrator = msg.sender;\n    }\n\n    function isAdministrator(address user) public view returns (bool) {\n        return user == administrator;\n    }\n}",
  "sourcePath": "/home/sid/repos/web3/oz-tut/contracts/access-control/Auth.sol",
  "compiler": {
    "name": "solc",
    "version": "0.6.8+commit.0bbfe453.Emscripten.clang"
  },
  "schemaVersion": "3.3.1",
  "updatedAt": "2020-10-30T06:55:29.614Z",
  "networkType": "ethereum",
  "devdoc": {
    "methods": {}
  },
  "userdoc": {
    "methods": {}
  }
}